:03000000020725CF
:0C072500787FE4F6D8FD75813902076C7E
:0600030000007F03DFFE98
:0100090022D4
:060D0100C293C297D293D9
:100D0700C2AFE4FEC297EF1392A3D297EFC313FFCC
:060D17000EBE08F0D2AF91
:010D1D0022B3
:100C5D00120D01C2AFE4FFC297EDC313FD30A30324
:100C6D00430580D2970FBF08EEC2A3D2AFEDC45497
:0D0C7D000FFFED540FFEEF75F00AA42EFFDF
:010C8A002247
:100D5700120D01ED75F00A84C454F0FFED75F00A29
:0A0D670084E5F04FFF120D07C29360
:010D7100225F
:0A0DA000C0F9A4B0999282F8809087
:080D7200E5A0541F44E0F5A0C8
:080D7A007F0C7EA9DEFEDFFC08
:010D8200224E
:060981008B2D8A2E892F48
:100987007D0153A01FE4FC8D80E5A0541F44C0F5F2
:10099700A053A01FAB2DAA2EA92F8C8275830012FE
:1009A700011D900DA093F580EC64016003BC030F5B
:1009B700AB30AA31A932120104B4010353807F126C
:1009C7000D727801AF05EF08800123D8FDFD758012
:0809D700FF53A01F0CBC06AF8A
:0109DF0022F5
:060A9E008B2D8A2E892F2A
:100AA4007D0153A01FE4FC8D80E5A0541F44C0F5D4
:100AB400A053A01FAB2DAA2EA92F8C8275830012E0
:100AC400011D900DA093F580EC6003BC010FAB30C9
:100AD400AA31A932120104B401037580FF120D7208
:100AE4007801AF05EF08800123D8FDFD7580FF5321
:060AF400A01F0CBC06B1BE
:010AFA0022D9
:0609E0008B2D8A2E892FE9
:1009E6007D0153A01FE4FC8D80E5A0541F44C0F593
:1009F600A053A01FAB2DAA2EA92F8C82758300129F
:100A0600011D900DA093F580EC64026003BC030FFA
:100A1600AB30AA31A932120104B401037580FF126A
:100A26000D727801AF05EF08800123D8FDFD7580B2
:080A3600FF53A01F0CBC06AF2A
:010A3E002295
:060A3F008B2D8A2E892F89
:100A45007D0153A01FE4FC8D80E5A0541F44C0F533
:100A5500A053A01FAB2DAA2EA92F8C82758300123F
:100A6500011D900DA093F580EC64046003BC050F97
:100A7500AB30AA31A932120104B401037580FF120B
:100A85000D727801AF05EF08800123D8FDFD758053
:080A9500FF53A01F0CBC06AFCB
:010A9D002236
:080CDC00011300C182011200A6
:100D3B00120B4D5004D2018002C201A202300101FC
:0B0D4B00B382029200A2019202A200FB
:010D5600227A
:060AFB008B348A358936B8
:100B0100E5B0540F44F0F4FF65125F6029AB37AADA
:100B110038A939740112019FEF540FAB34AA35A9DA
:100B2100366009740112019F8F13801D7403120135
:100B31009F7513AA8013EF540FAB34AA35A9366001
:0B0B41000474028001E412019F8F1277
:010B4C002286
:100CB5007FFFE51324FE601324FE601224FC6011FF
:100CC500245E601024A9700E7F01227F02227F031B
:060CD500227F04227FAA29
:010CDB0022F6
:10022800EFD3940540037F0122120104FED3940307
:1002380040037F0222EF7041EE700B900001120123
:100248001DF452935294120104B4010B9000011250
:10025800011D4293F45294120104FEB4020A900064
:100268000112011D42934294EEB4030D9000011255
:10027800011DFEF45293EE4294EF640170431201A3
:1002880004FE700B90000112011DF452915292EE7F
:10029800B4010B90000112011D4291F45292120117
:1002A80004B4020A90000112011D42914292120107
:1002B80004B4030D90000112011DFEF45291EE42A8
:1002C80092EF64027043120104FE700B9000011259
:1002D800011DF452955296EEB4010B9000011201E3
:1002E8001D4295F45296120104B4020A90000112BC
:1002F800011D42954296120104B4030D90000112AB
:10030800011DFEF45295EE4296EF6403704312010C
:1003180004FE700B90000112011DF452B152B2EEAE
:10032800B4010B90000112011D42B1F452B2120146
:1003380004B4020A90000112011D42B142B2120136
:1003480004B4030D90000112011DFEF452B1EE42F7
:10035800B2EF64047043120104FE700B90000112A6
:10036800011DF452B352B4EEB4010B900001120116
:100378001D42B3F452B4120104B4020A90000112EF
:10038800011D42B342B4120104B4030D90000112DE
:10039800011DFEF452B3EE42B4EF6405704312013E
:1003A80004FF700B90000112011DF452C952CAEFEC
:1003B800B4010B90000112011D42C9F452CA120186
:1003C80004B4020A90000112011D42C942CA120176
:1003D80004B4030D90000112011DFFF452C9EF424D
:0403E800CA7F0022A6
:1008B700EFD3940540037F0122EDD394FF40037FDC
:1008C7000222EF700BED30030442808003F4528064
:1008D700BF010BED30030442908003F45290BF0236
:1008E7000BED30030442A08003F452A0BF030BEDCD
:1008F70030030442B08003F452B0BF040BED300361
:100907000442C08003F452C0BF050BED300304421C
:09091700C88003F452C87F0022DD
:100B4D00EF700AE5805DB50502D322C322BF010A0D
:100B5D00E5905DB50502D322C322BF020AE5A05D73
:100B6D00B50502D322C322BF030AE5B05DB5050268
:100B7D00D322C322BF040AE5C05DB50502D322C34B
:100B8D0022BF050AE5C85DB50502D322C322D322D3
:100C8B00EFD3940540037F0122EF7003AF8022BFA7
:100C9B000103AF9022BF0203AFA022BF0303AFB08B
:0A0CAB0022BF0403AFC0227F022223
:0C0D94000000000000002D170A00000005
:100CE400010A01010B00010D00010F0101100101B6
:0C0CF4000E01011100010C0002080000BC
:100D8300538E7F5389F0758AE0758CB1C28DD28CF6
:010D9300223D
:100B9D008B2D8A2E892FAB30AA31A932120104ABCD
:100BAD002DAA2EA92F12019FAB30AA31A932900088
:100BBD000112011DAB2DAA2EA92F9000011201B11A
:100BCD00AB30AA31A93290000212011DAB2DAA2E15
:080BDD00A92F9000020201B1F2
:03000B00020839AF
:10083900C0E0C0F0C083C082C0D075D000C000C085
:0D08490001C002C003C004C005C006C00706
:100856000509E50970020508753700753800753910
:100866000D7B007A007911120AFBAE08AF097C00F5
:100876007D191201D3ED4C700C630AFF630FFF6301
:1008860010FF630EFFC3E50994A0E508940F400628
:0608960075080075090061
:10089C00D007D006D005D004D003D002D001D000B0
:0B08AC00D0D0D082D083D0F0D0E0325A
:1003EC0078217C007D007BFF7A0D79947E007F065E
:1003FC001200DE78277C007D007BFF7A0D799A7ED7
:10040C00007F031200DE782A7C007D007BFF7A0DD2
:10041C00799D7E007F031200DE120D1E120D837B70
:10042C00007A007927120BE5D2AFD2A9E50D60183E
:10043C00E4F50D120CB575310075320075330B7B7C
:10044C00007A00790C1205B0E50B14B409004003D6
:10045C0002058090046D75F003A4C58325F0C58357
:10046C007302048802049C0204B00204C50204CB8B
:10047C000204EA02051402053E0205687530007597
:10048C00310075320F7B007A007921120A9E809C14
:10049C007530007531007532107B007A00792112AD
:1004AC0009E0808875300075310075320E7B007A5A
:1004BC00007921120A3F020438E4F50BFB8015E4A5
:1004CC00F50BF53075310075322AFB7A007927125D
:1004DC000B9D7B007A007927120BE50204387530EE
:1004EC000075310075320B7B007A007927120920D8
:1004FC007530007531007532217B007A0079271236
:10050C0007B1750B01020438753000753100753276
:10051C000B7B007A007927120920753000753100A9
:10052C007532217B007A0079271207B1750B020214
:10053C00043875300075310075320B7B007A007908
:10054C00271209207530007531007532217B007A35
:10055C000079271207B1750B03020438750B01756E
:10056C0030007531007532277B007A00792A120B26
:10057C009D0204387B007A007927120C217530001B
:10058C007531007532217B007A0079271207B1751D
:10059C00300075310075320A7B007A00792112091E
:0405AC00810204388C
:100D1E00E5A0541F44A0F5A0E4F58053A01FE5A064
:0D0D2E00541F4480F5A07580FF53A01F22C4
:060BE5008B2D8A2E892FE2
:100BEB00753180E4FD7F8E120D57E4F530AB2DAAE5
:100BFB002EA92F85308275830012011DFDAF311296
:100C0B000D57053105310530E530C3940340DE7DCA
:060C1B00807F8E020D57E0
:060C21008B2D8A2E892FA5
:100C2700753181E4FD7F8E120D57E4F530AF311237
:100C37000C5DAB2DAA2EA92F853082758300EF128C
:100C470001B1053105310530E530C3940340DE7D40
:060C5700807F8E020D57A4
:0607B1008B2D8A2E892F1A
:1007B7007F02120104547F12019FAB2DE52F240104
:1007C700F9E4352EFA120104547F12019FAB2DE58F
:1007D7002F2402F9E4352EFA120104543F12019F27
:1007E700E4FEAB2DAA2EA92F8F8275830012011D5F
:1007F70075F00A84AB30AA31A932AC060E8C82752B
:1008070083001201B1AB2DAA2EA92FAD071F8D8230
:1008170075830012011D75F00A84AB30AA31A93225
:100827008E82758300E5F01201B10EEEC394064087
:01083700B10F
:01083800229D
:1005B0008B2E8A2F893012010424FE602B147003C5
:1005C00002064D1470030206B124046003020711F1
:1005D000EF64016003020724740212019FAB31AA89
:1005E00032A9337409020721BF0115AB2EAA2FA926
:1005F00030E412019FAB31AA32A933740412019F77
:10060000BF0215AB2EAA2FA930740312019FAB3184
:10061000AA32A9331412019FBF0316AB2EAA2FA929
:1006200030740212019FAB31AA32A9337406120151
:100630009FEF64046003020724AB2EAA2FA9301297
:10064000019FAB31AA32A9337405020721BF0115FE
:10065000AB2EAA2FA930E412019FAB31AA32A933E5
:10066000740412019FBF0215AB2EAA2FA930740487
:1006700012019FAB31AA32A9331412019FBF031696
:10068000AB2EAA2FA930740312019FAB31AA32A955
:1006900033740712019FEF64046003020724AB2E3A
:1006A000AA2FA93012019FAB31AA32A93374058059
:1006B00070BF0115AB2EAA2FA930E412019FAB31F8
:1006C000AA32A933740412019FBF0215AB2EAA2FC0
:1006D000A930740212019FAB31AA32A9331412015E
:1006E0009FBF0316AB2EAA2FA930740412019FAB33
:1006F00031AA32A933740812019FBF0427AB2EAA76
:100700002FA930E412019FAB31AA32A933740580BE
:1007100010AB2EAA2FA930E412019FAB31AA32A947
:050720003312019F22CD
:100920008B2D8A2E892FAB30AA31A93212010424D3
:10093000F9601F14603624027046AB2DAA2EA92F31
:10094000900002740112016CC394184033900002AD
:100950008016AB2DAA2EA92F900001740112016CF4
:10096000C3943C401B900001E40201B1AB2DAA2EC0
:10097000A92F740112014AC3943C4004E412019F60
:010980002254
:100731000203ECE493A3F8E493A34003F68001F2EF
:1007410008DFF48029E493A3F85407240CC8C333C9
:10075100C4540F4420C8834004F456800146F6DF98
:10076100E4800B0102040810204080900CDCE47E40
:10077100019360BCA3FF543F30E509541FFEE4938D
:10078100A360010ECF54C025E060A840B8E493A354
:10079100FAE493A3F8E493A3C8C582C8CAC583CA7F
:1007A100F0A3C8C582C8CAC583CADFE9DEE780BE37
:010D000000F2
:10000E00E709F608DFFA8046E709F208DFFA803ED4
:10001E0088828C83E709F0A3DFFA8032E309F608C1
:10002E00DFFA8078E309F208DFFA807088828C8329
:10003E00E309F0A3DFFA806489828A83E0A3F608DD
:10004E00DFFA805889828A83E0A3F208DFFA804CB7
:10005E0080D280FA80C680D4806980F2803380108E
:10006E0080A680EA809A80A880DA80E280CA8033F7
:10007E0089828A83ECFAE493A3C8C582C8CCC5836F
:10008E00CCF0A3C8C582C8CCC583CCDFE9DEE7803F
:10009E000D89828A83E493A3F608DFF9ECFAA9F0BE
:1000AE00EDFB2289828A83ECFAE0A3C8C582C8CC14
:1000BE00C583CCF0A3C8C582C8CCC583CCDFEADE2D
:1000CE00E880DB89828A83E493A3F208DFF980CC8F
:1000DE0088F0EF60010E4E60C388F0ED2402B40488
:1000EE000050B9F582EB2402B4040050AF2323452F
:0600FE00822390005E73F6
:10010400BB010689828A83E0225002E722BBFE02F9
:09011400E32289828A83E493222C
:10011D00BB010CE58229F582E5833AF583E0225097
:10012D0006E92582F8E622BBFE06E92582F8E222E1
:0D013D00E58229F582E5833AF583E49322FB
:10014A00BB010989828A83F8E028F022500327F745
:10015A0022BBFE05F8E328F3228A838982F8E49316
:02016A00282249
:10016C00BB010FF8E58229F582E5833AF583E02897
:10017C00F0225009C58229F8E58226F622BBFE0939
:10018C00C58229F8E22582F222F8EA2583F583E973
:03019C0093282283
:10019F00BB010689828A83F0225002F722BBFE013F
:0201AF00F32239
:1001B100F8BB010DE58229F582E5833AF583E8F084
:1001C100225006E92582C8F622BBFE05E92582C830
:0201D100F22218
:1001D300BC000BBE0029EF8DF084FFADF022E4CC10
:1001E300F875F008EF2FFFEE33FEEC33FCEE9DECD9
:1001F300984005FCEE9DFE0FD5F0E9E4CEFD22ED1F
:10020300F8F5F0EE8420D21CFEADF075F008EF2F68
:10021300FFED33FD4007985006D5F0F222C398FD59
:050223000FD5F0EA22F6
:00000001FF
