:03000000020B6090
:0C0B6000787FE4F6D8FD758161020BA7D8
:0A11360000007F027E0FDEFEDFFCEA
:01114000228C
:0A11410000007F067E5DDEFEDFFC8D
:01114B002281
:0A114C00C294121141D29402114125
:10109600E4FCC29400EDC313FDD2943094034305DF
:0A10A600801211360CBC08EAAF05F9
:0110B000221D
:0210CC00AD076E
:1010CE00E4FBC294ED139294121136D294EDC31335
:0510DE00FD0BBB08ED55
:0110E30022EA
:100F6A0012114C7FCC1210CC7F441210CC121141BA
:100F7A0012114112114C7FCC1210CC7FBE1210CC30
:100F8A00121096AB07121096EFC454F0FFEBC4543C
:030F9A000F4207FC
:010F9D002231
:080E6100011C00C184011B000B
:10107A00120DC95004D2018002C201A2043001013A
:0B108A00B382049200A2019204A200B5
:011095002238
:060D77008B558A568957D6
:100D7D00E5B0540F44F0F4FF651B5F6029AB58AA32
:100D8D0059A95A740112048FEF540FAB55AA56A9E5
:100D9D00576009740112048F8F1C801D7403120497
:100DAD008F751CAA8013EF540FAB55AA56A9576027
:0B0DBD000474028001E412048F8F1BFD
:010DC8002208
:100FF6007FFFE51C24FE601324FE601224FC6011B2
:10100600245E601024A9700E7F01227F02227F03D6
:06101600227F04227FAAE4
:01101C0022B1
:10053F00EFD3940540037F01221203F4FED39403FB
:10054F0040037F0222EF7041EE700B900001120406
:10055F000DF4529352941203F4B4010B9000011254
:10056F00040D4293F452941203F4FEB4020A900065
:10057F000112040D42934294EEB4030D9000011248
:10058F00040DFEF45293EE4294EF64017043120394
:10059F00F4FE700B90000112040DF452915292EE82
:1005AF00B4010B90000112040D4291F45292120308
:1005BF00F4B4020A90000112040D42914292120308
:1005CF00F4B4030D90000112040DFEF45291EE42AB
:1005DF0092EF640270431203F4FE700B900001124D
:1005EF00040DF452955296EEB4010B9000011204D3
:1005FF000D4295F452961203F4B4020A90000112C0
:10060F00040D429542961203F4B4030D90000112AB
:10061F00040DFEF45295EE4296EF640370431203FD
:10062F00F4FE700B90000112040DF452B152B2EEB1
:10063F00B4010B90000112040D42B1F452B2120337
:10064F00F4B4020A90000112040D42B142B2120337
:10065F00F4B4030D90000112040DFEF452B1EE42FA
:10066F00B2EF640470431203F4FE700B900001129A
:10067F00040DF452B352B4EEB4010B900001120406
:10068F000D42B3F452B41203F4B4020A90000112F3
:10069F00040D42B342B41203F4B4030D90000112DF
:1006AF00040DFEF452B3EE42B4EF6405704312032F
:1006BF00F4FF700B90000112040DF452C952CAEFEF
:1006CF00B4010B90000112040D42C9F452CA120377
:1006DF00F4B4020A90000112040D42C942CA120377
:1006EF00F4B4030D90000112040DFFF452C9EF4250
:0406FF00CA7F00228C
:100C5A00EFD3940540037F0122EDD394FF40037F35
:100C6A000222EF700BED30050442808003F45280BB
:100C7A00BF010BED30050442908003F45290BF028D
:100C8A000BED30050442A08003F452A0BF030BED24
:100C9A0030050442B08003F452B0BF040BED3005B6
:100CAA000442C08003F452C0BF050BED3005044274
:090CBA00C88003F452C87F002237
:100DC900EF700AE5805DB50502D322C322BF010A8F
:100DD900E5905DB50502D322C322BF020AE5A05DF5
:100DE900B50502D322C322BF030AE5B05DB50502EA
:100DF900D322C322BF040AE5C05DB50502D322C3CD
:100E090022BF050AE5C85DB50502D322C322D32254
:100FCC00EFD3940540037F0122EF7003AF8022BF63
:100FDC000103AF9022BF0203AFA022BF0303AFB047
:0A0FEC0022BF0403AFC0227F0222DF
:0C112A00C0F9A4B0999282F88090FFBF39
:0810F900E5A0541F44E0F5A03E
:081101007F0C7EA9DEFEDFFC7D
:0111090022C3
:060E19008B3D8A3E893F7B
:100E1F007D0153A01FE4FC8D80E5A0541F44C0F555
:100E2F00A053A01FAB3DAA3EA93F8C827583001231
:100E3F00040D90112A93F5801210F97801AF05EF88
:100E4F0008800123D8FDFD7580FF53A01F0CBC083F
:010E5F00C6CC
:010E6000226F
:060D21008B368A37893889
:100D27007D0153A01FE4FC8D80E5A0541F44C0F54E
:100D3700A053A01FAB36AA37A9388C82758300123F
:100D4700040D90112A93F580EC64026003BC05063C
:100D57003006037580FF1210F97801AF05EF0880A0
:0F0D67000123D8FDFD7580FF53A01F0CBC08B8F9
:010D7600225A
:0600030000007F03DFFE98
:0100090022D4
:06104000C293C297D29397
:10104600C2AFE4FEC297EF1392A3D297EFC313FF8A
:061056000EBE08F0D2AF4F
:01105C002271
:100F9E00121040C2AFE4FFC297EDC313FD30A3039E
:100FAE00430580D2970FBF08EEC2A3D2AFEDC45453
:0D0FBE000FFFED540FFEEF75F00AA42EFF9B
:010FCB002203
:1010B100121040ED75F00A84C454F0FFED75F00A8A
:0A10C10084E5F04FFF121046C293C1
:0110CB002202
:060E96008B368A37893813
:100E9C00753980E4FD7F8E1210B1E4FCAB36AA37B5
:100EAC00A9388C8275830012040DFDAF391210B174
:0F0EBC00053905390CBC03E47D807F8E0210B12F
:060ECB008B4B8A4C894D9F
:100ED100754E81E4FD7F8E1210B1E4FCAF4E120F0E
:100EE1009EAB4BAA4CA94D8C82758300EF1204A1D5
:0F0EF100054E054E0CBC03E47D807F8E0210B1D0
:1010E4002D170A00000000000000000000000000AE
:0510F4000000000000F7
:100E6900C102C103016000016100015C00015B0076
:10110A00538E7F5389F0758AE0758CB1C28DD28C6B
:01111A0022B2
:05115600D2AFD2A92276
:03000B00020BECF9
:100BEC00C0E0C0F0C083C082C0D075D000C000C0CF
:0D0BFC0001C002C003C004C005C006C00750
:100C0900055B755800755900755A5C7B007A007947
:100C190061120D77E55B75F00A84E5F07002B203A5
:100C2900E55B75F01984E5F07002B202E55BC394E7
:060C3900FA4003755B00A8
:100C3F00D007D006D005D004D003D002D001D00009
:0B0C4F00D0D0D082D083D0F0D0E032B3
:1008B80078217C007D007BFF7A1079E47E007F033D
:1008C8001203CE78247C007D007BFF7A1079E77EC6
:1008D800007F081203CE782C7C007D007BFF7A1005
:1008E80079EF7E007F0A1203CE12105D12110A12F0
:1008F80011567B007A007921120E96E55C6024E49B
:10090800F55C120FF6753A00753B00753C5D7B008F
:100918007A007960120CC3120FF67B007A00795DB9
:10092800120F00E56014600E146055240270CCAFFD
:100938005D120F3580C5753900753A00753B24780E
:100948003C7C007D007B007A00795D7E007F03128D
:1009580003CE753F0075400075412C754200754304
:10096800007544607B007A007921120703755E01E7
:100978007B007A007924A2029206120D2102090353
:10098800120FF6BF0308A203E433FF12101D753AD5
:1009980000753B00753C2C7B007A007924AF5F1210
:0509A800000E0209032E
:100E790008080A0A0A0A0A0B000104130000000004
:0C0E8900011700011800011900011A00F7
:10105D00E5A0541F44A0F5A0E4F58053A01FE5A022
:0D106D00541F4480F5A07580FF53A01F2282
:1009AD008B4B8A4C894D1203F4547F12048FAB4B41
:1009BD00E54D2401F9E4354CFA1203F4547F120489
:1009CD008FAB4BE54D2402F9E4354CFA1203F45488
:1009DD003F12048FAB4BAA4CA94D90000212040D8F
:1009ED0075F00A84AB4EAA4FA95012048FAB4BAAD7
:1009FD004CA94D90000212040D75F00A84AB4EAA5D
:100A0D004FA950900001E5F01204A1900002740B63
:100A1D001204A1AB4BAA4CA94D90000112040D7507
:100A2D00F00A84AB4EAA4FA9509000031204A1AB5B
:100A3D004BAA4CA94D90000112040D75F00A84AB20
:100A4D004EAA4FA950900004E5F01204A1900005A4
:100A5D00740B1204A1AB4BAA4CA94D1203F4FF75F4
:100A6D00F00A84AB4EAA4FA9509000061204A1EFD4
:0C0A7D0075F00A84900007E5F00204A167
:100CC3008F368B378A3889391203F424FE602C243B
:100CD30002704AE536B40404E412048FE536640373
:100CE300703BAB37AA38A9390412048FAB3AAA3B3D
:100CF300A93CF582758300E40204A1E536B4020E33
:100D030012111BAB37AA38A939740212048FE536C6
:0E0D1300B4010AAB37AA38A939E412048F22C2
:100F0000EF24FE601524FE702B740112043A1203C4
:100F1000F4C39404401EE402048F90000274011292
:100F2000045C90000212040DC3940A400790000272
:050F3000E41204A122FF
:0F111B00E5A0541F4480F5A07580FF53A01F224C
:10101D00EF14601004701BE5A0541F4480F5A075FB
:10102D0080FE800BE5A0541F4480F5A07580FF5312
:03103D00A01F22CF
:100F3500EF14601214601714601C24037026E4F586
:100F45000E750F018016E4F50E750F05800E750EF2
:100F550003E4F50F8006750E06E4F50FFB7A0079BC
:040F650008120E1947
:010F69002265
:10000E008B378A388939E412048FAB37AA38A9396D
:10001E00900002740B1204A1900003740A1204A142
:10002E00900004740A1204A1900005740B1204A12E
:10003E00EFB40A0040030202FD90004EF828287328
:10004E0002006C02009B0200DE020121020164022A
:10005E0001A70201EA02022D0202700202B2AB37C0
:10006E00AA38A939900001E41204A1AB3AAA3BA91F
:10007E003C1203F4FF75F00A84AB37AA38A9399005
:10008E0000061204A1EF75F00A840202F2AB37AA41
:10009E0038A93990000174011204A1AB3AAA3BA908
:1000AE003C90000112040D75F00A84AB37AA38A9F2
:1000BE00399000061204A1AB3AAA3BA93C9000016C
:1000CE0012040D75F00A84AB37AA38A9390202F270
:1000DE00AB37AA38A93990000174021204A1AB3AC9
:1000EE00AA3BA93C90000212040D75F00A84AB37AE
:1000FE00AA38A9399000061204A1AB3AAA3BA93C32
:10010E0090000212040D75F00A84AB37AA38A93993
:10011E000202F2AB37AA38A9399000017403120417
:10012E00A1AB3AAA3BA93C90000312040D75F00A4C
:10013E0084AB37AA38A9399000061204A1AB3AAAAB
:10014E003BA93C90000312040D75F00A84AB37AA4C
:10015E0038A9390202F2AB37AA38A93990000174D6
:10016E00041204A1AB3AAA3BA93C90000412040D60
:10017E0075F00A84AB37AA38A9399000061204A18B
:10018E00AB3AAA3BA93C90000412040D75F00A8408
:10019E00AB37AA38A9390202F2AB37AA38A939907F
:1001AE00000174051204A1AB3AAA3BA93C900005CC
:1001BE0012040D75F00A84AB37AA38A939900006DF
:1001CE001204A1AB3AAA3BA93C90000512040D758E
:1001DE00F00A84AB37AA38A9390202F2AB37AA3833
:1001EE00A93990000174061204A1AB3AAA3BA93CAE
:1001FE0090000612040D75F00A84AB37AA38A9399F
:10020E009000061204A1AB3AAA3BA93C900006123C
:10021E00040D75F00A84AB37AA38A9390202F2AB85
:10022E0037AA38A93990000174071204A1AB3AAA73
:10023E003BA93C90000712040D75F00A84AB37AA57
:10024E0038A9399000061204A1AB3AAA3BA93C90FA
:10025E00000712040D75F00A84AB37AA38A93902CB
:10026E0002F2AB37AA38A93990000174081204A122
:10027E00AB3AAA3BA93C90000812040D75F00A8413
:10028E00AB37AA38A9399000061204A1AB3AAA3BA3
:10029E00A93C90000812040D75F00A84AB37AA38F9
:1002AE00A9398040AB37AA38A939900001740912D8
:1002BE0004A1AB3AAA3BA93C90000912040D75F0BB
:1002CE000A84AB37AA38A9399000061204A1AB3ABA
:1002DE00AA3BA93C90000912040D75F00A84AB37B5
:1002EE00AA38A939900007E5F01204A1120E1922BE
:060A89008B4B8A4C894DE5
:100A8F00ED705B1203F4F51090000112040DF511D7
:100A9F0090000212040DF512AF117E007C007D3C18
:100AAF001204EEC004A905AA06AB07AF127E007CA4
:100ABF000E7D101204EED000EF2BFBEE3AFAED395B
:100ACF00F9EC38F8E4FCFDFEEB2510FFEE3AFEEDF5
:100ADF0039FDEC38FCAB4FAA50A9511204D4AB4BE3
:100AEF00AA4CA94D90000112040DFF7E007C007DE1
:100AFF003C1204EEC004C005C006C00790000212ED
:100B0F00040DFF7E007C0E7D101204EED003D00288
:100B1F00D001D000EF2BFFEE3AFEED39FDEC38FCA3
:100B2F00A804C005C006C007AB4BAA4CA94D1203C1
:100B3F00F4FFE4FCFDFED003D002D001EB2FFFEE5B
:100B4F003AFEED39FDEC38FCAB52AA53A95402041E
:010B5F00D4C1
:060703008B368A378938AD
:10070900E4F548F547F546F545F549F54A120ECBA6
:1007190085394E853A4F853B50AB36AA37A93812F1
:1007290009AD754F00755000755113755200755319
:1007390000755445AB36AA37A938AD3D120A89E58B
:100749003C14606A14700302080D24FE7003020849
:100759005F240460030208B7C3E5489516FFE5471F
:100769009515FEE5469514FDE5459513FCE47B01D9
:10077900FAF9F8C31204C360030208B7854816855D
:100789004715854614854513120F6AAB3FAA40A940
:1007990041AE1705178E82758300EF1204A1E51784
:1007A900C3940A50030208B7E4F5170208ACC3E57D
:1007B900489516FFE5479515FEE5469514FDE5456F
:1007C9009513FCE47B05FAF9F8C31204C36003022C
:1007D90008B7854816854715854614854513120FB0
:1007E9006AAB3FAA40A941AE1805188E82758300ED
:1007F900EF1204A1E518C3940A50030208B7E4F5FF
:10080900180208ACC3E5489516FFE5479515FEE5BE
:10081900469514FDE5459513FCE47B1EFAF9F8C3EA
:100829001204C360030208B7854816854715854633
:1008390014854513120F6AAB3FAA40A941AE1905A9
:10084900198E82758300EF1204A1E519C3940A4039
:100859005DE4F519804DC3E5489516FFE547951503
:10086900FEE5469514FDE5459513FCE47B3CFAF954
:10087900F8C31204C3703785481685471585461491
:10088900854513120F6AAB3FAA40A941AE1A051A52
:100899008E82758300EF1204A1E51AC3940A400EF3
:0E08A900E4F51AAB42AA43A944740212048F6C
:0108B700221E
:100B6C000208B8E493A3F8E493A34003F68001F2DF
:100B7C0008DFF48029E493A3F85407240CC8C3338A
:100B8C00C4540F4420C8834004F456800146F6DF59
:100B9C00E4800B0102040810204080900E61E47E7A
:100BAC00019360BCA3FF543F30E509541FFEE4934E
:100BBC00A360010ECF54C025E060A840B8E493A315
:100BCC00FAE493A3F8E493A3C8C582C8CAC583CA40
:100BDC00F0A3C8C582C8CAC583CADFE9DEE780BEF8
:010E9500005C
:1002FE00E709F608DFFA8046E709F208DFFA803EE2
:10030E0088828C83E709F0A3DFFA8032E309F608CE
:10031E00DFFA8078E309F208DFFA807088828C8336
:10032E00E309F0A3DFFA806489828A83E0A3F608EA
:10033E00DFFA805889828A83E0A3F208DFFA804CC4
:10034E0080D280FA80C680D4806980F2803380109B
:10035E0080A680EA809A80A880DA80E280CA803304
:10036E0089828A83ECFAE493A3C8C582C8CCC5837C
:10037E00CCF0A3C8C582C8CCC583CCDFE9DEE7804C
:10038E000D89828A83E493A3F608DFF9ECFAA9F0CB
:10039E00EDFB2289828A83ECFAE0A3C8C582C8CC21
:1003AE00C583CCF0A3C8C582C8CCC583CCDFEADE3A
:1003BE00E880DB89828A83E493A3F208DFF980CC9C
:1003CE0088F0EF60010E4E60C388F0ED2402B40495
:1003DE000050B9F582EB2402B4040050AF2323453C
:0603EE00822390034E7310
:1003F400BB010689828A83E0225002E722BBFE0207
:09040400E32289828A83E4932239
:10040D00BB010CE58229F582E5833AF583E02250A4
:10041D0006E92582F8E622BBFE06E92582F8E222EE
:0D042D00E58229F582E5833AF583E4932208
:10043A00BB010989828A83F8E028F022500327F752
:10044A0022BBFE05F8E328F3228A838982F8E49323
:02045A00282256
:10045C00BB010FF8E58229F582E5833AF583E028A4
:10046C00F0225009C58229F8E58226F622BBFE0946
:10047C00C58229F8E22582F222F8EA2583F583E980
:03048C0093282290
:10048F00BB010689828A83F0225002F722BBFE014C
:02049F00F32246
:1004A100F8BB010DE58229F582E5833AF583E8F091
:1004B100225006E92582C8F622BBFE05E92582C83D
:0204C100F22225
:1004C300EB9FF5F0EA9E42F0E99D42F0E89C45F08F
:0104D3002206
:1004D400BB010789828A830205275005E9F80205D2
:0A04E4001BBBFE05E9F802053322F8
:1004EE00EC8EF0A4CCC5F0CCCDF8EFA4CEC5F02D9B
:1004FE00FDE43CFCE8A42EC8C5F03DFDE43CFCEF59
:0D050E00A4FFE5F028FEE43DFDE43CFC22E6
:0C051B00ECF608EDF608EEF608EFF6220C
:0C052700ECF0A3EDF0A3EEF0A3EFF02247
:0C053300ECF208EDF208EEF208EFF22204
:00000001FF
